:100077003F065B4F666D7D077F6F777C395E7971D1
:010087000078
:0B009400EF1FAC0670011E4C70F6223E
:10000300E4FDEDC39408748094805067EDB4080058
:10001300504D90001CF82828730200340200380267
:10002300004002004402004C02005002005802004B
:100033005CC2A08002D2A0C2A1C2A28022C2A080C0
:1000430002D2A0D2A1C2A28016C2A08002D2A0C2B4
:10005300A1D2A2800AC2A08002D2A0D2A1D2A2EDD4
:1000630090007793F5807F647E00120094E4F5801E
:030073000D808F6E
:010076002267
:05009F0012000380FBCC
:0300000002008873
:0C008800787FE4F6D8FD75810702009F28
:00000001FF
