:03000000020006F5
:10005F0075083F750906750A5B750B4F750C66754C
:10006F000D6D750E7D750F0775107F75116F7512FC
:10007F007775137C75143975155E7516797517714B
:03008F0002000369
:03000300020302F3
:10009200AC82AD83AEF0FF8C008D018E028F031C0B
:1000A200BCFF091DBDFF051EBEFF011FE8494A4BEB
:1000B20070E522AF827D007E00BF30005003020156
:1000C20068EF24B95003020168EF24D0FF240A83A9
:1000D200F582EF241B83F583E4730A10161C222891
:1000E2002E343A4068686868686868464C52585EC0
:1000F200640101010101010101010101010101018B
:1001020001010101010101017D007E0080587D0194
:100112007E0080527D027E00804C7D037E00804600
:100122007D047E0080407D057E00803A7D067E0053
:1001320080347D077E00802E7D087E0080287D0928
:100142007E0080227D0A7E00801C7D0B7E00801650
:100152007D0C7E0080107D0D7E00800A7D0E7E006B
:1001620080047D0F7E00ED2408F98780900064E40E
:10017200F5F012009275800022E582FF24F8500308
:100182000201E1EF240A83F582EF240C83F583E474
:1001920073A3ABB3BBC3CBD3DB01010101010101EB
:1001A20001C2A0C2A1C2A28036D2A0C2A1C2A280B4
:1001B2002EC2A0D2A1C2A28026D2A0D2A1C2A28067
:1001C2001EC2A0C2A1D2A28016D2A0C2A1D2A28077
:1001D2000EC2A0D2A1D2A28006D2A0D2A1D2A28562
:1001E20019821200B522AD82AE83AFF0120D63F513
:1001F20019758200C007C006C00512017BD005D068
:1002020006D00774012DFAE43EFB8F048A828B83A9
:100212008CF0120D63F519758204C007C006C00583
:1002220012017BD005D006D00774022DFAE43EFB02
:100232008F048A828B838CF0120D63F5197582020A
:10024200C007C006C00512017BD005D006D00774D6
:10025200032DFAE43EFB8F048A828B838CF0120D0D
:1002620063F519758206C007C006C00512017BD06E
:1002720005D006D00774042DFAE43EFB8F048A826F
:100282008B838CF0120D63F519758201C007C006CD
:10029200C00512017BD005D006D00774052DFAE403
:1002A2003EFB8F048A828B838CF0120D63F51975E5
:1002B2008205C007C006C00512017BD005D006D05A
:1002C2000774062DFAE43EFB8F048A828B838CF03E
:1002D200120D63F519758203C007C006C00512012D
:1002E2007BD005D006D00774072DFDE43EFE8D823B
:1002F2008E838FF0120D63F51975820712017B222E
:100302007E007F00C007C006C006C00774A8C0E018
:10031200740DC0E07480C0E0741AC0E07400C0E0E4
:100322007440C0E012045BE58124F8F581D006D068
:10033200070EBE00010FC3EE9464EF648094804008
:100342002174C89E74808FF063F08095F040139002
:100352000DAB75F080C007C0061201E8D006D007C9
:1003620080A2C374C89E74808FF063F08095F050B1
:100372001490001A75F040C007C0061201E8D006BA
:10038200D007020306C3EE9464EF64809480501495
:10039200900D9E75F080C007C0061201E8D006D00D
:0C03A200070203067E007F000203062213
:100D9E004631393930303030300025640046323239
:070DAE00323230303030001A
:06003500E478FFF6D8FD9F
:100013007900E94400601B7A00900DC0780175A057
:1000230000E493F2A308B8000205A0D9F4DAF2754C
:02003300A0FF2C
:10003B007800E84400600A790175A000E4F309D860
:10004B00FC7800E84400600C7900900001E4F0A318
:04005B00D8FCD9FAFA
:1003AE00C029858129C082058105810581E5292421
:1003BE00FBF8A9290909E6F70809E6F70809E6F79F
:1003CE00A829080886820886830886F0120D63FA2B
:1003DE00A3120D63FBA3120D63FF74012AFCE43B11
:1003EE00FD8F06A829080886820886830886F0EC09
:1003FE00120D83A3ED120D83A3EE120D838A828B51
:10040E00838FF0A82908E6120D83852981D0292231
:10041E0085822685832785F02875372675380075E1
:10042E00394085223A85233B85243C85253D900322
:10043E00AE120546AE82AF83AB26AC27AD288B82BB
:10044E008C838DF0E4120D838E828F8322C029E57A
:10045E0081F52924F8FF8F3DE52924FBFF8F3775A1
:10046E003800753940E52924F8F8863A08863B08A5
:10047E00863C9003AE120546AE82AF83E52924FB7F
:10048E00F886030886040886058B828C838DF0E43B
:10049E00120D838E828F83D02922AF82C02DC02E63
:1004AE00C02F1204B58007C02BC02C8F822215815D
:1004BE00158115810535E4B53502053622AF8274F6
:1004CE00302FFF24C6500B74072FFFE52A6003431D
:1004DE0007208F820204A8E582FFC4540FF582C064
:1004EE00071204CBD007740F5FF5820204CB85820E
:1004FE0057AB30AC31AD32AE33AA347559208A07C2
:10050E00EF2FF558EE2354014558FAEB2BFBEC3345
:10051E00FCED33FDEE33FEC3EA95574008EAC39572
:10052E0057FA430301E55914FF8F5970D18B308C64
:10053E00318D328E338A342285822B85832C8537FA
:10054E002D85382E85392FE4F535F536AD3AAE3B8F
:10055E00AF3C8D828E838FF0120D63FC74012DF5EE
:10056E003AE43EF53B8F3CECFF7003020D27BF25AE
:10057E00028003020D1F7E007D008E3E8E3F7A00AC
:10058E007B008E407C008E41E4F549F54A7542FFB2
:10059E007543FF853A4B853B4C853C4D854B82859B
:1005AE004C83854DF0120D63F54EA385824B8583EA
:1005BE004C854B3A854C3B854D3C7425B54E088594
:1005CE004E821204A8808574D0254E400302068800
:1005DE00E54E24C6500302068874FFB54255B54356
:1005EE0052854957854A5890000AC006C005C00476
:1005FE00C003C002120D4685824F858350D002D0B3
:10060E0003D004D005D006854E51755200E5512514
:10061E004FF551E5523550F552E55124D0F549E5E7
:10062E005234FFF54AE549454A60030205AA7D01A9
:10063E000205AA85425785435890000AC006C00598
:10064E00C004C003C002120D46858251858352D06C
:10065E0002D003D004D005D006854E4F755000E56C
:10066E004F2551F551E5503552F552E55124D0F54F
:10067E0042E55234FFF5430205AA742EB54E1574A9
:10068E00FFB54205B5430280030205AAE4F542F523
:10069E00430205AA749F254E500EE54E2485400850
:1006AE00534EDF752A018003752A007420B54E0360
:1006BE00020754742BB54E0302074E742DB54E022D
:1006CE0080797442B54E0302075A7443B54E030245
:1006DE0007657444B54E030209B27446B54E030263
:1006EE0009C87448B54E030205AA7449B54E0302F3
:1006FE0009B2744AB54E030205AA744CB54E028077
:10070E0050744FB54E030209B97450B54E0302082A
:10071E00FD7453B54E0280767454B54E030205AA8D
:10072E007455B54E030209BE7458B54E030209C383
:10073E00745AB54E030205AA0209CC7E010205AA1F
:10074E00753E010205AA753F010205AA7B0102054D
:10075E00AA7540010205AAEB600AE53D14F9893D30
:10076E008751800DE53D24FEF54F854F3DA94F87FE
:10077E0051855182C006C005C004C003C0021204D8
:10078E00A8D002D003D004D005D0060209EEE53D74
:10079E0024FDF55185513DA951874B09874C098799
:1007AE004D1919854B30854C31854D32854B8285DF
:1007BE004C83854DF0C006C005C004C003C00212B4
:1007CE000D2E858251858352D002D003D004D005E0
:1007DE00D00674FFB54209B5430685514285524392
:1007EE00EE704FC3E5519549E552954A5044E5499F
:1007FE00C39551F54FE54A9552F550854F4B8550AF
:10080E004C154F74FFB54F021550E54B454C601C0F
:10081E00758220C006C005C004C003C0021204A821
:10082E00D002D003D004D005D00680CF854F4985A5
:10083E00504A85424F8543508530828531838532BB
:10084E00F0120D63F54B854B46604FC3E4954F7424
:10085E00808550F063F08095F0503F154F74FFB5D2
:10086E004F021550854682C006C005C004C003C0A5
:10087E00021204A8D002D003D004D005D0068530D1
:10088E004B85314C85324D054BE4B54B02054C85FD
:10089E004B30854C31854D32809EEE70030209EE51
:1008AE00C3E5519549E552954A40030209EEE549E3
:1008BE00C39551F551E54A9552F55285514F8552E2
:1008CE0050155174FFB551021552E54F4550700346
:1008DE000209E8758220C006C005C004C003C0022C
:1008EE001204A8D002D003D004D005D00680CCE5E7
:1008FE003D24FDF54F854F3DA94F874B09874C0988
:10090E00874D1919854B30854C31854D32853247CF
:10091E00748025475005754F43801974A0254750A4
:10092E0005754F50800E74C025475005754F498090
:10093E0003754F58854F82C006C005C004C003C062
:10094E00021204A875823A1204A87582301204A805
:10095E007582781204A8D002D003D004D005D00638
:10096E007449B54F0280217450B54F02801A8531FB
:10097E0082C006C005C004C003C0021204E5D00246
:10098E00D003D004D005D006853082C006C005C085
:10099E0004C003C0021204E5D002D003D004D00577
:1009AE00D006803C7A0175410A8035754108803049
:1009BE0075410A802B75411080267C018022854E60
:1009CE0082C006C005C004C003C0021204A8D00233
:1009DE00D003D004D005D006800685514985524AF1
:1009EE00EC6068E53D24FCFC8C3D8C018753098747
:1009FE00540987550987561919198553308554316D
:100A0E008555328556337530B575310D7532808505
:100A1E00305385315485325574012553F54BE435E9
:100A2E0054F54C85554D854B30854C31854D328571
:100A3E0053828554838555F0120D63FC8C537003DD
:100A4E0002055A8553821204A880C4E54170030240
:100A5E00055AEB603FE53D14F9893D87048C5375CB
:100A6E0054007555007556008553308554318555A3
:100A7E0032855633EA6003020B0B853053755400F2
:100A8E007555007556008553308554318555328520
:100A9E0056338069E5406025E53D24FCFC8C3D8C99
:100AAE0001875309875409875509875619191985DE
:100ABE0053308554318555328556338040E53D247B
:100ACE00FEFC8C3D8C018703098704198B53ECF5D2
:100ADE00543395E0F555F55685533085543185558B
:100AEE0032855633EA7016853053853154F555F5F7
:100AFE0056855330855431855532855633EA602AF2
:100B0E00E53330E723C3E49530F553E49531F554DE
:100B1E00E49532F555E49533F556855330855431C9
:100B2E0085553285563380027A007C01795FE4F573
:100B3E0053F554753400854182C006C005C004C00B
:100B4E0002C0011204FCD001D002D004D005D006A0
:100B5E00EC700DE534C4F551E7FB4551F7198002F1
:100B6E00A7340553E4B553020554ECB40100E43345
:100B7E00FCE53045314532453370B88948855344DC
:100B8E00855445E549454A7005754901F54AED70AC
:100B9E0043EE7040854953854A54AB440B8B5175D7
:100BAE005200C3E5519553E552955450217582205C
:100BBE00C006C005C004C0021204A8D002D004D0E2
:100BCE0005D006155374FFB55302155480CC8553CA
:100BDE004985544AEA601D75822DC006C005C004C1
:100BEE001204A8D004D005D006154974FFB54902E9
:100BFE00154A8046E54445456040E53E601D7582D8
:100C0E002BC006C005C0041204A8D004D005D0061F
:100C1E00154974FFB54902154A801FE53F601B75E3
:100C2E008220C006C005C0041204A8D004D005D08E
:100C3E0006154974FFB54902154AEE703C854953B5
:100C4E00854A54AA53AB54155374FFB55302155429
:100C5E00C3E5449AE5459B5041ED60067A307B0032
:100C6E0080047A207B008A82C006C005C00412046C
:100C7E00A8D004D005D00680CAC3E5449549E54501
:100C8E00954A500FE549C39544F551E54A9545F50A
:100C9E0052800DE4F551F55280068553518554521C
:100CAE00A948854453854554AA53AD54155374FF32
:100CBE00B553021554EA4D602EECB40100E433FC3A
:100CCE00700A09E7C4540FFD8D3480078705740F31
:100CDE005DF534853482C006C004C0011204CBD049
:100CEE0001D004D00680C1EE700302055AAD51AE9C
:100CFE00528D038E041DBDFF011EEB4C70030205C9
:100D0E005A758220C006C0051204A8D005D00680F0
:100D1E00E08F821204A802055A8535828536832219
:0B0DB5003C4E4F20464C4F41543E0086
:100D2E00AA82AB83120D636003A380F8C3E5829A97
:100D3E00F582E5839BF58322E5828557F0A4C58273
:100D4E00C0F08558F0A4D0F025F0C5838557F0A4E7
:050D5E002583F583224E
:0D00060075815F120D7FE58260030200032B
:100D630020F71430F6148883A88220F507E6A883B9
:100D730075830022E280F7E49322E0227582002249
:100D830020F71130F6138883A88220F509F6A8838B
:0B0D93007583002280FEF280F5F02244
:00000001FF
